:020000040800F2
:10000000000001206D9F0008C5460008C746000893
:10001000C9460008CB460008CD4600080000000095
:10002000000000000000000000000000CF460008B3
:10003000D146000800000000D3460008D54600085D
:10004000B19F0008B19F0008B19F0008B19F000850
:10005000B19F0008B19F0008B19F0008B19F000840
:10006000B19F0008B19F0008B19F00083947000800
:10007000B19F0008B19F0008B19F0008B19F000820
:10008000B19F0008B19F0008B19F0008B19F000810
:10009000B19F0008B19F0008B19F0008B19F000800
:1000A000B19F0008B19F0008B19F0008B19F0008F0
:1000B000B19F0008B19F0008B19F0008B19F0008E0
:1000C000B19F0008B19F0008B19F0008B19F0008D0
:1000D000B19F0008B19F0008B19F0008B19F0008C0
:1000E000B19F0008B19F0008B19F00080000000008
:1000F0000000000000000000000000000000000000
:100100000000000000000000B19F0008B19F00083F
:100110004947000859470008694700089147000807
:10012000B19F0008B19F0008B19F0008B19F00086F
:10013000B19F00080000000000000000B19F00080F
:10014000B19F0008B19F0008B19F0008B19F00084F
:10015000000000000000000000000000000000009F
:10016000000000000000000000000000000000008F
:10017000000000000000000000000000000000007F
:10018000000000000000000000000000000000006F
:10019000000000000000000000000000000000005F
:1001A000000000000000000000000000000000004F
:1001B000000000000000000000000000000000003F
:1001C000000000000000000000000000000000002F
:1001D000000000000000000000000000000000001F
:0401E0005FF8E0F1F3
:1001E80010B5054C237833B9044B13B10448AFF369
:1001F80000800123237010BD380400200000000097
:1002080038E3000808B5034B1BB103490348AFF3B3
:10021800008008BD000000003C04002038E300080E
:1002280081F0004102E000BF83F0004330B54FEA9F
:1002380041044FEA430594EA050F08BF90EA020F0C
:100248001FBF54EA000C55EA020C7FEA645C7FEA9F
:10025800655C00F0E2804FEA5454D4EB5555B8BFC2
:100268006D420CDD2C4480EA020281EA030382EA33
:10027800000083EA010180EA020281EA0303362DC5
:1002880088BF30BD11F0004F4FEA01314FF4801C98
:100298004CEA113102D0404261EB410113F0004FAA
:1002A8004FEA03334CEA133302D0524263EB430361
:1002B80094EA050F00F0A780A4F10104D5F1200EFF
:1002C8000DDB02FA0EFC22FA05F2801841F100015A
:1002D80003FA0EF2801843FA05F359410EE0A5F12E
:1002E80020050EF1200E012A03FA0EFC28BF4CF05F
:1002F800020C43FA05F3C01851EBE37101F0004515
:1003080007D54FF0000EDCF1000C7EEB00006EEB21
:100318000101B1F5801F1BD3B1F5001F0CD34908AB
:100328005FEA30004FEA3C0C04F101044FEA445202
:1003380012F5800F80F09A80BCF1004F08BF5FEA89
:10034800500C50F1000041EB045141EA050130BD69
:100358005FEA4C0C404141EB010111F4801FA4F10C
:100368000104E9D191F0000F04BF01460020B1FA61
:1003780081F308BF2033A3F10B03B3F120020CDA99
:100388000C3208DD02F1140CC2F10C0201FA0CF077
:1003980021FA02F10CE002F11402D8BFC2F1200CDC
:1003A80001FA02F120FA0CFCDCBF41EA0C01904092
:1003B800E41AA2BF01EB0451294330BD6FEA0404DB
:1003C8001F3C1CDA0C340EDC04F11404C4F12002C6
:1003D80020FA04F001FA02F340EA030021FA04F3D8
:1003E80045EA030130BDC4F10C04C4F1200220FA2F
:1003F80002F001FA04F340EA0300294630BD21FA6D
:1004080004F0294630BD94F0000F83F4801306BF32
:1004180081F480110134013D4EE77FEA645C18BF26
:100428007FEA655C29D094EA050F08BF90EA020FBD
:1004380005D054EA000C04BF1946104630BD91EAB5
:10044800030F1EBF0021002030BD5FEA545C05D1B8
:100458004000494128BF41F0004130BD14F58004F7
:100468003CBF01F5801130BD01F0004545F0FE416B
:1004780041F470014FF0000030BD7FEA645C1ABFA0
:10048800194610467FEA655C1CBF0B46024650EAD7
:10049800013406BF52EA033591EA030F41F4002103
:1004A80030BD00BF90F0000F04BF0021704730B589
:1004B8004FF4806404F132044FF000054FF000015E
:1004C80050E700BF90F0000F04BF0021704730B51F
:1004D8004FF4806404F1320410F0004548BF4042F4
:1004E8004FF000013EE700BF42004FEAE2014FEA49
:1004F80031014FEA02701FBF12F07F4393F07F4F24
:1005080081F06051704732F07F4208BF704793F026
:100518007F4F04BF41F40021704730B54FF4607439
:1005280001F0004521F000411CE700BF50EA01023C
:1005380008BF704730B54FF000050AE050EA0102E5
:1005480008BF704730B511F0004502D5404261EB55
:1005580041014FF4806404F132045FEA915C3FF496
:10056800D8AE4FF003025FEADC0C18BF03325FEA33
:10057800DC0C18BF033202EBDC02C2F1200300FAE4
:1005880003FC20FA02F001FA03FE40EA0E0021FA09
:1005980002F11444BDE600BF70B54FF0FF0C4CF4F7
:1005A800E06C1CEA11541DBF1CEA135594EA0C0FA9
:1005B80095EA0C0F00F0DEF82C4481EA030621EAE4
:1005C8004C5123EA4C5350EA013518BF52EA03351F
:1005D80041F4801143F4801338D0A0FB02CE4FF0D1
:1005E8000005E1FB02E506F00042E0FB03E54FF001
:1005F8000006E1FB03569CF0000F18BF4EF0010EF9
:10060800A4F1FF04B6F5007F64F5407404D25FEAF4
:100618004E0E6D4146EB060642EAC62141EA5551A7
:100628004FEAC52040EA5E504FEACE2EB4F1FD0CE9
:1006380088BFBCF5E06F1ED8BEF1004F08BF5FEA67
:10064800500E50F1000041EB045170BD06F0004619
:1006580046EA010140EA020081EA0301B4EB5C04C6
:10066800C2BFD4EB0C0541EA045170BD41F48011BE
:100678004FF0000E013C00F3AB8014F1360FDEBFE3
:10068800002001F0004170BDC4F10004203C35DABF
:100698000C341BDC04F11404C4F1200500FA05F342
:1006A80020FA04F001FA05F240EA020001F00042E3
:1006B80021F0004110EBD37021FA04F642EB060159
:1006C8005EEA430E08BF20EAD37070BDC4F10C0483
:1006D800C4F1200500FA04F320FA05F001FA04F247
:1006E80040EA020001F0004110EBD37041F1000133
:1006F8005EEA430E08BF20EAD37070BDC4F120053E
:1007080000FA05F24EEA020E20FA04F301FA05F2A5
:1007180043EA020321FA04F001F0004121FA04F24D
:1007280020EA020000EBD3705EEA430E08BF20EA1D
:10073800D37070BD94F0000F0FD101F00046400057
:1007480041EB010111F4801F08BF013CF7D041EAD9
:10075800060195F0000F18BF704703F000465200DD
:1007680043EB030313F4801F08BF013DF7D043EAAE
:100778000603704794EA0C0F0CEA135518BF95EA64
:100788000C0F0CD050EA410618BF52EA4306D1D1EB
:1007980081EA030101F000414FF0000070BD50EA0A
:1007A800410606BF1046194652EA430619D094EA94
:1007B8000C0F02D150EA013613D195EA0C0F05D17E
:1007C80052EA03361CBF104619460AD181EA0301D2
:1007D80001F0004141F0FE4141F470014FF000008A
:1007E80070BD41F0FE4141F4780170BD70B54FF025
:1007F800FF0C4CF4E06C1CEA11541DBF1CEA1355A5
:1008080094EA0C0F95EA0C0F00F0A7F8A4EB050486
:1008180081EA030E52EA03354FEA013100F088807D
:100828004FEA03334FF0805545EA131343EA126346
:100838004FEA022245EA111545EA10654FEA0026FB
:100848000EF000419D4208BF964244F1FD0404F5B4
:10085800407402D25B084FEA3202B61A65EB030510
:100868005B084FEA32024FF480104FF4002CB6EBCD
:10087800020E75EB030E22BFB61A754640EA0C004D
:100888005B084FEA3202B6EB020E75EB030E22BF8D
:10089800B61A754640EA5C005B084FEA3202B6EBCE
:1008A800020E75EB030E22BFB61A754640EA9C008D
:1008B8005B084FEA3202B6EB020E75EB030E22BF5D
:1008C800B61A754640EADC0055EA060E18D04FEA1B
:1008D800051545EA16754FEA06164FEAC30343EABB
:1008E80052734FEAC2025FEA1C1CC0D111F4801F88
:1008F8000BD141EA00014FF000004FF0004CB6E781
:1009080011F4801F04BF01430020B4F1FD0C88BF1F
:10091800BCF5E06F3FF6AFAEB5EB030C04BFB6EB2A
:10092800020C5FEA500C50F1000041EB045170BD1D
:100938000EF0004E4EEA113114EB5C04C2BFD4EB4A
:100948000C0541EA045170BD41F480114FF0000ECE
:10095800013C90E645EA060E8DE60CEA135594EA4A
:100968000C0F08BF95EA0C0F3FF43BAF94EA0C0F4D
:100978000AD150EA01347FF434AF95EA0C0F7FF4C2
:1009880025AF104619462CE795EA0C0F06D152EA16
:1009980003353FF4FDAE1046194622E750EA4106FA
:1009A80018BF52EA43067FF4C5AE50EA41047FF40B
:1009B8000DAF52EA43057FF4EBAE12E74FF0FF3C70
:1009C80006E000BF4FF0010C02E000BF4FF0010C41
:1009D8004DF804CD4FEA410C7FEA6C5C4FEA430CBA
:1009E80018BF7FEA6C5C1BD001B050EA410C0CBF09
:1009F80052EA430C91EA030F02BF90EA020F00206B
:100A0800704710F1000F91EA030F58BF994208BFD1
:100A180090422CBFD8176FEAE37040F0010070478E
:100A28004FEA410C7FEA6C5C02D150EA013C07D1E5
:100A38004FEA430C7FEA6C5CD6D152EA033CD3D030
:100A48005DF8040B704700BF8446104662468C462A
:100A58001946634600E000BF01B5FFF7B7FF00285D
:100A680048BF10F1000F01BD4DF808EDFFF7F4FF86
:100A78000CBF012000205DF808FB00BF4DF808ED11
:100A8800FFF7EAFF34BF012000205DF808FB00BF34
:100A98004DF808EDFFF7E0FF94BF012000205DF856
:100AA80008FB00BF4DF808EDFFF7CEFF94BF01200B
:100AB80000205DF808FB00BF4DF808EDFFF7C4FF04
:100AC80034BF012000205DF808FB00BF4FEA410C4D
:100AD8007FEA6C5C02D150EA013C0AD14FEA430C30
:100AE8007FEA6C5C02D152EA033C02D14FF000006D
:100AF80070474FF0010070474A0011D212F50012FA
:100B080011D20DD56FF47873B3EB62520ED44FEA5D
:100B1800C12343F0004343EA505323FA02F07047DD
:100B28004FF00000704750EA013002D14FF0FF301B
:100B380070474FF0000070474FEA4102B2F1E043BE
:100B480024BFB3F5001CDCF1FE5C0DD901F0004CAC
:100B58004FEAC0024CEA5070B2F1004F40EB8300FC
:100B680008BF20F00100704711F0804F21D113F128
:100B78003872BCBF01F00040704741F480114FEA61
:100B88005252C2F11802C2F1200C10FA0CF320FAEA
:100B980002F018BF40F001004FEAC1234FEAD32307
:100BA80003FA0CFC40EA0C0023FA02F34FEA430371
:100BB800CCE77FEA625307D150EA01331EBF4FF0FA
:100BC800FE4040F44000704701F0004040F0FE4015
:100BD80040F40000704700BF80F0004002E000BF12
:100BE80081F0004142001FBF5FEA410392EA030F10
:100BF8007FEA226C7FEA236C6AD04FEA1262D2EB5A
:100C08001363C1BFD218414048404140B8BF5B425E
:100C1800192B88BF704710F0004F40F4000020F0F7
:100C28007F4018BF404211F0004F41F4000121F00D
:100C38007F4118BF494292EA030F3FD0A2F1010257
:100C480041FA03FC10EB0C00C3F1200301FA03F195
:100C580000F0004302D5494260EB4000B0F5000FB8
:100C680013D3B0F1807F06D340084FEA310102F177
:100C78000102FE2A51D2B1F1004F40EBC25008BF29
:100C880020F0010040EA03007047490040EB0000F3
:100C980010F4000FA2F10102EDD1B0FA80FCACF122
:100CA800080CB2EB0C0200FA0CF0AABF00EBC25021
:100CB80052421843BCBFD0401843704792F0000F0F
:100CC80081F4000106BF80F400000132013BB5E762
:100CD8004FEA41037FEA226C18BF7FEA236C21D0D8
:100CE80092EA030F04D092F0000F08BF084670473D
:100CF80090EA010F1CBF0020704712F07F4F04D10B
:100D0800400028BF40F00040704712F100723CBF1D
:100D180000F50000704700F0004343F0FE4040F447
:100D2800000070477FEA226216BF08467FEA236305
:100D38000146420206BF5FEA412390EA010F40F4F0
:100D4800800070474FF0000304E000BF10F000433C
:100D580048BF40425FEA000C08BF704743F0964323
:100D680001464FF000001CE050EA010208BF70473E
:100D78004FF000030AE000BF50EA010208BF7047C5
:100D880011F0004302D5404261EB41015FEA010CDA
:100D980002BF84460146002043F0B64308BFA3F1D2
:100DA8008053A3F50003BCFA8CF2083AA3EBC253B4
:100DB80010DB01FA02FC634400FA02FCC2F12002D3
:100DC800BCF1004F20FA02F243EB020008BF20F00A
:100DD8000100704702F1200201FA02FCC2F1200270
:100DE80050EA4C0021FA02F243EB020008BF20EA65
:100DF800DC7070474FF0FF0C1CEAD0521EBF1CEA93
:100E0800D15392EA0C0F93EA0C0F6FD01A4480EA80
:100E1800010C400218BF5FEA41211ED04FF0006369
:100E280043EA501043EA5111A0FB01310CF0004095
:100E3800B1F5000F3EBF490041EAD3715B0040EABB
:100E4800010062F17F02FD2A1DD8B3F1004F40EB8B
:100E5800C25008BF20F00100704790F0000F0CF05E
:100E6800004C08BF49024CEA502040EA51207F3A22
:100E7800C2BFD2F1FF0340EAC250704740F40000FD
:100E88004FF00003013A5DDC12F1190FDCBF00F0EE
:100E980000407047C2F10002410021FA02F1C2F19C
:100EA800200200FA02FC5FEA310040F1000053EA38
:100EB8004C0308BF20EADC70704792F0000F00F086
:100EC800004C02BF400010F4000F013AF9D040EA8C
:100ED8000C0093F0000F01F0004C02BF490011F420
:100EE800000F013BF9D041EA0C018FE70CEAD1531E
:100EF80092EA0C0F18BF93EA0C0F0AD030F0004C9E
:100F080018BF31F0004CD8D180EA010000F0004051
:100F1800704790F0000F17BF90F0004F084691F00F
:100F2800000F91F0004F14D092EA0C0F01D1420249
:100F38000FD193EA0C0F03D14B0218BF084608D112
:100F480080EA010000F0004040F0FE4040F400005C
:100F5800704740F0FE4040F4400070474FF0FF0CEF
:100F68001CEAD0521EBF1CEAD15392EA0C0F93EA36
:100F78000C0F69D0A2EB030280EA010C49024FEA88
:100F8800402037D04FF0805343EA111143EA101341
:100F98000CF000408B4238BF5B0042F17D024FF4F9
:100FA800000C8B4224BF5B1A40EA0C00B3EB510FD4
:100FB80024BFA3EB510340EA5C00B3EB910F24BFBD
:100FC800A3EB910340EA9C00B3EBD10F24BFA3EB42
:100FD800D10340EADC001B0118BF5FEA1C1CE0D10A
:100FE800FD2A3FF650AF8B4240EBC25008BF20F0BD
:100FF800010070470CF0004C4CEA50207F32C2BF11
:10100800D2F1FF0340EAC250704740F400004FF0AD
:101018000003013A37E792F0000F00F0004C02BFDE
:10102800400010F4000F013AF9D040EA0C0093F0A8
:10103800000F01F0004C02BF490011F4000F013B02
:10104800F9D041EA0C0195E70CEAD15392EA0C0F6A
:1010580008D142027FF47DAF93EA0C0F7FF470AFA2
:10106800084676E793EA0C0F04D14B023FF44CAFE5
:1010780008466EE730F0004C18BF31F0004CCAD17A
:1010880030F000427FF45CAF31F000437FF43CAFB6
:101098005FE700BF4FF0FF3C06E000BF4FF0010CD8
:1010A80002E000BF4FF0010C4DF804CD4FEA4002BA
:1010B8004FEA41037FEA226C18BF7FEA236C11D004
:1010C80001B052EA530C18BF90EA010F58BFB2EBB7
:1010D800030088BFC81738BF6FEAE17018BF40F037
:1010E800010070477FEA226C02D15FEA402C05D1EB
:1010F8007FEA236CE4D15FEA412CE1D05DF8040B70
:10110800704700BF844608466146FFE70FB5FFF702
:10111800C9FF002848BF10F1000F0FBD4DF808EDBA
:10112800FFF7F4FF0CBF012000205DF808FB00BFAB
:101138004DF808EDFFF7EAFF34BF012000205DF805
:1011480008FB00BF4DF808EDFFF7E0FF94BF012052
:1011580000205DF808FB00BF4DF808EDFFF7D2FF4F
:1011680094BF012000205DF808FB00BF4DF808ED92
:10117800FFF7C8FF34BF012000205DF808FB00BF5F
:101188004FEA40024FEA41037FEA226C02D15FEA4C
:10119800402C08D17FEA236C02D15FEA412C02D1AE
:1011A8004FF0000070474FF0010070474FEA4002CF
:1011B800B2F1FE4F0FD34FF09E03B3EB12620DD97D
:1011C8004FEA002343F0004310F0004F23FA02F0E7
:1011D80018BF404270474FF00000704712F1610F8E
:1011E80001D1420205D110F0004008BF6FF0004065
:1011F80070474FF00000704742000ED2B2F1FE4F28
:101208000BD34FF09E03B3EB126209D44FEA0023CD
:1012180043F0004323FA02F070474FF00000704794
:1012280012F1610F01D1420202D14FF0FF30704735
:101238004FF00000704700BF7BB972B90029BEBFEC
:1012480000204FF0004106E008BF00281CBF6FF0E7
:1012580000414FF0FF3000F0BFB9ADF1080C6DE967
:1012680004CE002909DB002B1ADB00F04DF8DDF86D
:1012780004E0DDE9022304B07047404261EB41011C
:10128800002B1BDB00F040F8DDF804E0DDE9022369
:1012980004B0404261EB4101524263EB43037047A3
:1012A800524263EB430300F02FF8DDF804E0DDE978
:1012B800022304B0404261EB41017047524263EBA4
:1012C800430300F021F8DDF804E0DDE9022304B06F
:1012D800524263EB4303704753B94AB9002908BF28
:1012E80000281CBF4FF0FF314FF0FF3000F074B9F9
:1012F800ADF1080C6DE904CE00F006F8DDF804E065
:10130800DDE9022304B070472DE9F0478C46044616
:10131800089E002B4BD18A42154667D9B2FA82F251
:101328004AB1C2F1200701FA02F320FA07F7954003
:1013380047EA030C94404FEA154EBCFBFEF71FFA30
:1013480085F80EFB17C307FB08F9210C41EA034394
:10135800994509D9EB1807F1FF3180F01C819945AF
:1013680040F21981023F2B44A3EB0903B3FBFEF0C3
:101378000EFB103300FB08F1A4B244EA0344A14277
:1013880009D92C1900F1FF3380F00781A14240F2FE
:10139800048102382C4440EA07400027641A1EB131
:1013A8000023D440C6E900433946BDE8F0878B42A4
:1013B80009D9002E00F0EC800027C6E90001384664
:1013C8003946BDE8F087B3FA83F7002F48D18B423E
:1013D80002D3824200F2FB80841A61EB03030120EE
:1013E8009C46002EE0D0C6E9004CDDE702B9FFDEDE
:1013F800B2FA82F2002A40F08F800127491B4FEA97
:1014080015481FFA85F9B1FBF8FE08FB1E1109FB08
:101418000EF04FEA144C4CEA0143984207D9EB18F6
:101428000EF1FF3102D2984200F2CD808E461B1A8F
:10143800B3FBF8F008FB103309FB00F9A4B244EA47
:101448000344A14507D92C1900F1FF3302D2A14565
:1014580000F2B6801846A4EB090440EA0E409EE765
:10146800C7F12005BB4022FA05FC4CEA030C21FA1F
:1014780005F44FEA1C4EB4FBFEF91FFA8CF80EFB7C
:10148800194420FA05F3B94009FB08FA19430B0C73
:1014980043EA0444A24502FA07F200FA07F30BD91B
:1014A8001CEB040409F1FF3080F08880A24540F26B
:1014B8008580A9F102096444A4EB0A04B4FBFEF098
:1014C8000EFB104400FB08FA89B241EA0444A24525
:1014D80008D91CEB040400F1FF316BD2A24569D98D
:1014E8000238644440EA0940A0FB0289A4EB0A04DC
:1014F8004C454146CE4654D351D0002E69D05A1A95
:1015080064EB0E0404FA05F522FA07F3FC401D43C8
:10151800C6E90054002747E79540C2F1200321FAA5
:1015280003F04FEA1548B0FBF8F71FFA85F908FBF6
:10153800170024FA03F3914007FB09FC0B43190C2D
:1015480041EA00418C4504FA02F407D9691807F109
:10155800FF3031D28C452FD9023F2944A1EB0C0131
:10156800B1FBF8F008FB101C00FB09FE99B241EA38
:101578000C418E4507D9691800F1FF3318D28E4502
:1015880016D902382944A1EB0E0140EA07473AE789
:101598003746304608E70F46E6E61846FBE6434579
:1015A800ABD2B8EB020169EB0C0201389646A4E70E
:1015B8001846E8E7084695E70746CFE781467BE700
:1015C80002382C4447E7AEF1020E2B442FE7384689
:1015D80007E73746E8E600BF704700BF034613F841
:1015E800012B002AFBD1181A0138704710F8012B7B
:1015F80011F8013B012A28BF9A42F7D0D01A704748
:1016080010B504460E4B18784FF47A73B3FBF0F319
:101618000C4A1068B0FBF3F000F01AFB68B90F2C05
:1016280001D901200AE0002221464FF0FF3000F0E6
:10163800CFFA034B5C60002000E0012010BD00BF22
:10164800000000200C00002008B5074A136843F08A
:1016580010031360032000F0A9FA0020FFF7D0FF61
:1016680003F00AF8002008BD00200240034A116870
:10167800034B1B780B441360704700BFE81C002025
:1016880000000020014B1868704700BFE81C0020CC
:1016980008B5436A9A6A12F0500F03D01B6A1B6B95
:1016A800984708BD9A6A42F400729A621A6892686A
:1016B80002F46022B2F5602F03D0184603F078F8E0
:1016C800EFE7DA68002AF8D19A6A22F480729A62FF
:1016D8009A6A12F4805FF0D19A6A42F001029A6223
:1016E800EBE7704708B5406AFFF7FBFF08BD704796
:1016F80008B5406A836A43F040038362C36A43F0D3
:101708000403C362FFF7F3FF08BD000030B482B0E2
:101718000023019390F82430012B00F08B800246BF
:10172800012380F824304B68062B29D80568686B9C
:1017380003EB8303053B1F249C4020EA04000C684C
:1017480004FA03F303436B630B68092B38D9156854
:10175800E86803EB43031E3B07249C4020EA04008F
:101768008C6804FA03F30343EB600B68103B012B0E
:1017780034D90020002382F8243002B030BC7047EE
:101788000C2B0ED80568286B03EB8303233B1F241F
:101798009C4020EA04000C6804FA03F303432B631B
:1017A800D2E70568E86A03EB8303413B1F249C40AA
:1017B80020EA04000C6804FA03F30343EB62C3E76E
:1017C8001568286903EB430307249C4020EA0400BA
:1017D8008C6804FA03F303432B61C6E713681648C1
:1017E800834205D0936A43F0200393620120C1E746
:1017F800986810F4000F1BD1986840F400009860B6
:101808000B68102B01D00020B4E70C4B1B680C4967
:10181800A1FB03139B0C03EB83035900019102E026
:10182800019B013B0193019B002BF9D10020A1E70B
:1018380000209FE70220A0E7002401400C000020C0
:1018480083DE1B4330B583B00023019303689A6895
:1018580012F0010F2ED19A6842F001029A60174BDC
:101868001B68174AA2FB03239B0C019302E0019B10
:10187800013B0193019B002BF9D10446FFF702FFBE
:10188800054623689B6813F0010F11D1FFF7FAFE94
:10189800401B0228F5D9A36A43F01003A362E36A48
:1018A80043F00103E362002384F82430012002E0BE
:1018B800002000E0002003B030BD00BF0C00002075
:1018C80083DE1B43F8B50468454DAC425BD0454BFD
:1018D8009C4258D090F82440012C7ED016460D46E4
:1018E8000446012380F82430FFF7ACFF07460028A0
:1018F8006ED1A36A23F4706323F0010343F4807369
:10190800A3622268374B9A4244D0A36A23F4801317
:10191800A362536813F4806F05D0A36A23F440537D
:1019280043F48053A362A36A13F4805F48D0E36A48
:1019380023F00603E362002384F82430236A2A4A4A
:101948009A62236A294ADA62236A294A1A6323684F
:101958006FF002021A602268936843F48073936000
:10196800216833462A464C31206A00F019FA226869
:10197800936803F46023B3F5602F24D0936843F48D
:101988008013936027E0164B5B6813F4702FA1D087
:10199800012720E0A3F580635B6813F4702FB4D0AF
:1019A800A36A43F48013A3620D4B5B6813F4806F42
:1019B800B9D0A36A23F4405343F48053A362B2E737
:1019C8000023E362B7E7936843F4A003936002E05F
:1019D800002384F824303846F8BD0227FBE700BF0F
:1019E800002401400028014099160008ED1600085F
:1019F800F916000838B503689A6812F0010F01D18A
:101A0800002038BD04469A6822F001029A60FFF768
:101A180039FE054623689B6813F0010F0ED0FFF7C7
:101A280031FE401B0228F5D9A36A43F01003A362D4
:101A3800E36A43F00103E3620120E2E70020E0E704
:101A480000287FD038B50446836A002B33D020465F
:101A5800FFF7D0FFA36A13F010036DD100286BD1F4
:101A6800A26A22F4885222F0020242F00202A26222
:101A78006268E1690A43E56842EA4502A168B1F58E
:101A8800807F21D001291CD0616901291FD02568D8
:101A9800696821F469410B436B6021688D682A4BA2
:101AA8002B4013438B60A368B3F5807F20D0012BB4
:101AB8001ED000211FE0C36280F8243002F0CAFB68
:101AC800C5E74FF48073DFE74FF48073DCE735B97F
:101AD800A169013943EA413343F40063D7E7A16AB6
:101AE80041F02001A162E16A41F00101E162CEE723
:101AF8002369013B19052568EB6A23F470030B433E
:101B0800EB6223689968114B0B409A420BD0A36A89
:101B180023F0120343F01003A362E36A43F00103C6
:101B2800E36201200DE00023E362A36A23F00303CC
:101B380043F00103A36204E0A36A43F01003A36225
:101B4800012038BD01207047FDF7E1FFFE0E1FFFA1
:101B580090F82430012B25D010B50446012380F8D5
:101B68002430FFF747FF034620B1002284F82420E1
:101B7800184610BD2268936823F480739360206A26
:101B880000F048F9034640B9A26A22F4885222F0CC
:101B9800010242F00102A262E7E7A26A42F04002B3
:101BA800A262E2E70223184670470000074AD3689A
:101BB80023F4E0631B041B0C000200F4E0601843EC
:101BC80040F0BF6040F40030D060704700ED00E0A6
:101BD80030B4174BDB68C3F30223C3F10704042CAA
:101BE80028BF04241D1D062D18D9033B4FF0FF35CF
:101BF80005FA04F421EA0401994005FA03F322EAFC
:101C08000303194300280BDB0901C9B200F1604046
:101C180000F5614080F8001330BC70470023E5E709
:101C280000F00F000901C9B2024B1954F4E700BFD4
:101C380000ED00E014ED00E000F01F024009012370
:101C48009340024A42F82030704700BF00E100E0AC
:101C58000138B0F1807F0AD2064B5860064AF0215D
:101C680082F823100020986007221A60704701202C
:101C7800704700BF10E000E000ED00E058B110B57B
:101C8800044643791BB101236371002010BD037121
:101C980002F060FBF7E7012070470379012B1AD0A7
:101CA80030B401230371022343710468A36843F02D
:101CB8000103A360002304E0046851F82350256061
:101CC80001339342F8D3012343710023037103685E
:101CD800186830BC70470220704770B4066CC56B3A
:101CE8000124B4406C60046863604368102B05D01D
:101CF800036899600368DA6070BC704703689A608B
:101D08000368D960F8E7000000283BD010B4034608
:101D180001681D4A91422AD81C4A0A441C49A1FB61
:101D280002121209920002641A4AC263022283F85C
:101D380021201868016821F47F5121F030015A6888
:101D48009C682243DC6822431C6922435C69224365
:101D58009C692243DC6922430A430260002098639D
:101D6800012283F8212083F8200010BC70470A4A1A
:101D78000A440749A1FB0212120992000264074AA9
:101D8800C263D3E70120704707040240F8FFFDBF94
:101D9800CDCCCCCC00000240F8FBFDBF00040240D3
:101DA80038B590F82040012C32D0012480F820402A
:101DB80090F82140012C04D0002380F82030022024
:101DC80038BD0446022084F821000020A06325685D
:101DD800286820F0010028602046FFF77EFFE36AAC
:101DE8005BB12268136843F00E031360226813681E
:101DF80043F0010313600020E2E72268136823F030
:101E0800040313602268136843F00A031360EDE7C4
:101E18000220D5E7034601680A6822F00E020A602C
:101E280001680A6822F001020A60026CC06B012195
:101E380001FA02F2426083F82110002083F82000A2
:101E48007047000008B590F82130022B03D0042316
:101E58008363012008BD0268136823F00E03136032
:101E68000268136823F00103136003684B4A934226
:101E78004ED9783A934224D01432934230D0143257
:101E880093422FD0143293422FD0143293422FD042
:101E9800143293422FD0143293422FD002F562723B
:101EA80093422ED0143293422DD0143293422CD028
:101EB8001432934202D04FF4803203E04FF4805240
:101EC80000E00122364B5A60012380F821300023BC
:101ED80080F82030436B002B5ED098470020B9E78C
:101EE8001022EFE74FF48072ECE74FF48052E9E7F5
:101EF8004FF48032E6E74FF48012E3E74FF0807248
:101F0800E0E70122DEE71022DCE74FF48072D9E730
:101F1800244A934224D01432934225D01432934257
:101F280024D01432934224D01432934224D0143251
:101F3800934224D01432934224D002F56272934221
:101F480023D01432934222D01432934221D0143237
:101F5800934202D04FF4803203E04FF4805200E005
:101F68000122114B5A60AFE71022FAE74FF4807252
:101F7800F7E74FF48052F4E74FF48032F1E74FF47B
:101F88008012EEE74FF08072EBE70122E9E71022BA
:101F9800E7E74FF48072E4E700205BE78000024047
:101FA80000040240080002400000024038B5C36B3C
:101FB8001A6804682568016C04238B40134200F0FA
:101FC8009B8015F0040F00F09780236813F0200F12
:101FD80003D1236823F0040323600368AA4A9342C9
:101FE80046D9783A934224D01432934228D01432F6
:101FF800934227D01432934227D01432934227D0E9
:102008001432934227D01432934227D002F56272D9
:10201800934226D01432934225D01432934224D0CE
:102028001432934202D04FF4802203E04FF48042EE
:1020380000E00422954B5A60C36A03B1984738BD43
:102048004022F7E74FF48062F4E74FF48042F1E76B
:102058004FF48022EEE74FF48002EBE74FF0806206
:10206800E8E70422E6E74022E4E74FF48062E1E78C
:10207800874A934224D01432934225D01432934293
:1020880024D01432934224D01432934224D01432F0
:10209800934224D01432934224D002F562729342C0
:1020A80023D01432934222D01432934221D01432D6
:1020B800934202D04FF4802203E04FF4804200E0C4
:1020C8000422744B5A60B7E74022FAE74FF4806263
:1020D800F7E74FF48042F4E74FF48022F1E74FF43A
:1020E8008002EEE74FF08062EBE70422E9E7402246
:1020F800E7E74FF48062E4E702238B40134200F0E5
:10210800A38015F0020F00F09F80236813F0200FC2
:1021180006D1236823F00A032360012380F82130C5
:102128000368594A93424BD9783A934224D01432DF
:1021380093422DD0143293422CD0143293422CD097
:10214800143293422CD0143293422CD0143293423E
:102158002CD002F5627293422BD0143293422AD0CB
:102168001432934229D01432934202D04FF40032F1
:1021780003E04FF4005200E00222444B5A6000236F
:1021880080F82030836A002B3FF459AF984756E710
:102198002022F2E74FF40072EFE74FF40052ECE729
:1021A8004FF40032E9E74FF40012E6E74FF000720F
:1021B800E3E70222E1E72022DFE74FF40072DCE7E1
:1021C800334A934224D01432934225D01432934296
:1021D80024D01432934224D01432934224D014329F
:1021E800934224D01432934224D002F5627293426F
:1021F80023D01432934222D01432934221D0143285
:10220800934202D04FF4003203E04FF4005200E052
:102218000222204B5A60B2E72022FAE74FF40072FC
:10222800F7E74FF40052F4E74FF40032F1E74FF4C8
:102238000012EEE74FF00072EBE70222E9E72022F6
:10224800E7E74FF40072E4E7082303FA01F11142CB
:102258003FF4F5AE15F0080F3FF4F1AE236823F014
:102268000E032360026CC16B012303FA02F24A6079
:10227800836380F82130002380F82030036B002B23
:102288003FF4DDAE9847DAE68000024000040240E1
:102298000800024000000240044B0022DA61044AB0
:1022A800136943F00103136101807047F01C00209B
:1022B800002002401A4BDB6813F0100F27D0194A90
:1022C800D36943F00203D3611023154AD26812F090
:1022D800040F06D01349CA6942F00102CA6143F0EB
:1022E80004030F4AD26912F0010F09D00D49CA69D7
:1022F80042F00402CA610A49CA6922F00102CA61AD
:1023080040F20112934204D0054AD360704700237B
:10231800DBE7034AD36923F00103D361704700BFA9
:1023280000200240F01C00200A4B1B6913F0800FAC
:102338000DD0084B084A5A6002F188325A601B696E
:1023480013F0800F01D00120704700207047002053
:10235800704700BF0020024023016745034A136904
:1023680043F0800313610020704700BF0020024043
:1023780038B50446FFF786F90546174BDB6813F0B6
:10238800010F0AD0B4F1FF3FF7D00CB3FFF77AF989
:10239800401BA042F1D9032019E00F4BDB6813F072
:1023A800200F02D00C4B2022DA600B4BDB6813F0B5
:1023B800100F09D1084BDB6913F0010F04D1064B4C
:1023C800DB6813F0040F05D0FFF774FF012038BD58
:1023D8000320FCE70020FAE7002002402DE9F8433B
:1023E800234C247E012C41D01E4690460F460446BD
:1023F8001F4B01221A764CF25030FFF7B9FF034603
:1024080070BB012C29D0022C24D04FF004090024E1
:102418004C4525D22101C1F12002A1F1200328FA5F
:1024280001F106FA02F2114326FA03F3194389B2BD
:1024380007EB4400FFF730FF4CF25030FFF798FFEE
:102448000C4B1D6925F001051D61034640B9013497
:10245800E4B2DDE74FF00209D9E74FF00109D6E70A
:10246800034A002111761846BDE8F8830223FAE7EB
:10247800F01C002000200240064B0022DA61064BC7
:102488001A6942F004021A611A6942F040021A619C
:10249800704700BFF01C002000200240064B0022BD
:1024A800DA61064B1A6942F002021A6158611A6928
:1024B80042F040021A617047F01C002000200240E0
:1024C800264B1B7E012B46D070B50E460446234B87
:1024D80001221A760368022B20D04CF25030FFF705
:1024E80047FF90BB4FF0FF333360A5680122E168D6
:1024F800A36803EBC123AB4228D92846FFF7CEFFD8
:102508004CF25030FFF734FF154A136923F00203E9
:1025180013610246B8B905F50065E8E74CF250309A
:10252800FFF726FF08B1012210E00120FFF7A4FF02
:102538004CF25030FFF71CFF024609490B6923F0A3
:1025480004030B6102E0356000E00122034B002127
:102558001976104670BD022210467047F01C002004
:1025680000200240F0B482B000263546A1E0002CDD
:1025780059D0012C00D1CE68FF2B68D88446FF2B98
:1025880068D8AC00DCF800200F27A74022EA070231
:1025980006FA04F42243CCF800204A6812F0805F5F
:1025A80000F086805E4A946944F00104946192695F
:1025B80002F001020192019AAC08A71C594A52F88C
:1025C800272005F00307BF004FF00F0C0CFA07FC9B
:1025D80022EA0C0C544A904242D002F580629042A2
:1025E8007FD002F5806290427DD002F580629042F1
:1025F80034D0042235E04D4FBC4214D00BD94C4F97
:10260800BC4210D007F58037BC420CD0A7F5801724
:10261800BC42B1D107E0A7F58017BC4203D007F54B
:102628008037BC42A8D18C687CB1012C08D04261AB
:102638000826A1E7CE6808369EE7CE680C369BE7E9
:102648000261082698E7002696E7042694E700F139
:10265800040C94E7A5F10804A40093E7032200E022
:102668000022BA4042EA0C0202342E4F47F82420D6
:102678004A6812F4803F38D02E4C22681A432260F0
:102688004A6812F4003F36D02A4C62681A436260E6
:102698004A6812F4801F34D0264CA2681A43A260FC
:1026A8004A6812F4001F32D0224CE2681343E360F8
:1026B80001350F2D31D80122AA400B6813409A42E8
:1026C800F6D14C68122CB8D095D8022CB2D07FF62F
:1026D8004EAF032CB7D0112C7FF44EAFCE68043622
:1026E8004AE70122BDE70222BBE7124C226822EA30
:1026F80003022260C4E70F4C626822EA03026260A8
:10270800C6E70C4CA26822EA0302A260C8E7094C9B
:10271800E26822EA0303E360CAE702B0F0BC70474C
:102728000010024000000140000801400000211094
:10273800000031100004014012B90904016170471A
:1027480001617047014B01221A60704720000E4258
:1027580082B0084B1B68084AA2FB03235B0A00FBF4
:1027680003F0019000BF019B5A1E0192002BF9D182
:1027780002B070470C000020D34D621070B582B0D3
:102788000446036813F0010F2CD0AB4B5B6803F0D1
:102798000C03042B1DD0A84B5B6803F00C03082B1B
:1027A80012D0A368B3F5803F41D0002B55D103F177
:1027B800804303F504331A6822F480321A601A68D9
:1027C80022F480221A6037E09B4B5B6813F4803F49
:1027D800E7D0994B1B6813F4003F03D0A368002B84
:1027E80000F01F82236813F0020F76D0924B5B68CB
:1027F80013F00C0F5FD0904B5B6803F00C03082BB1
:1028080054D06369002B00F08A808C4B01221A6037
:10281800FEF738FF0546884B1B6813F0020F75D189
:10282800FEF730FF401B0228F5D90320FCE1824A5D
:10283800136843F480331360A36843B3FEF722FFA1
:1028480005467D4B1B6813F4003FCBD1FEF71AFFFA
:10285800401B6428F5D90320E6E1B3F5A02F09D081
:10286800754B1A6822F480321A601A6822F48022A2
:102878001A60E1E703F18043A3F53C331A6842F498
:1028880080221A601A6842F480321A60D4E7FEF790
:10289800F9FE0546684B1B6813F4003FA2D0FEF70B
:1028A800F1FE401B6428F5D90320BDE1624B5B684B
:1028B80013F4803FA5D1604B1B6813F0020F04D0BE
:1028C8006369012B01D00120AEE15B4A136823F054
:1028D800F803A16943EAC1031360236813F0080FE2
:1028E80032D0E369002B5BD0554B01221A60FEF70A
:1028F800C9FE0546504B5B6A13F0020F21D1FEF763
:10290800C1FE401B0228F5D903208DE14A4A13680D
:1029180023F0F803A16943EAC1031360DDE7474BDD
:1029280000221A60FEF7AEFE0546434B1B6813F003
:10293800020FD2D0FEF7A6FE401B0228F5D90320CD
:1029480072E10120FFF704FF236813F0040F00F081
:102958009780394BDB6913F0805F33D1364BDA69E6
:1029680042F08052DA61DB6903F080530193019BE6
:102978000125344B1B6813F4807F25D02369012B74
:1029880036D0002B4CD103F1804303F504331A6A87
:1029980022F001021A621A6A22F004021A622CE07A
:1029A800274B00221A60FEF76DFE0546224B5B6A34
:1029B80013F0020FC8D0FEF765FE401B0228F5D9B8
:1029C800032031E10025D4E71E4A136843F48073DD
:1029D8001360FEF757FE06461A4B1B6813F4807FF8
:1029E800CCD1FEF74FFE801B6428F5D903201BE1EC
:1029F800114A136A43F001031362236973B3FEF7A4
:102A080041FE06460C4B1B6A13F0020F37D1FEF746
:102A180039FE801B41F288339842F3D9032003E141
:102A2800052B11D0044B1A6A22F001021A621A6AA5
:102A380022F004021A62E0E700100240000042425D
:102A48008004424200700040794B1A6A42F0040246
:102A58001A621A6A42F001021A62CEE7FEF712FE03
:102A68000646734B1B6A13F0020F08D0FEF70AFEE6
:102A7800801B41F288339842F3D90320D4E0EDB9A2
:102A8800E36A002B6FD06A4A526812F4803F05D07F
:102A9800674A526802F00C02082A15D0022B4BD163
:102AA800634B1B6813F0805F15D0614BDB6A03F042
:102AB800F003626B93420ED00120B5E05C4AD36903
:102AC80023F08053D361DBE7594AD26A12F4803F7E
:102AD800E4D00120A8E0574B00221A60FEF7D2FD8F
:102AE8000546534B1B6813F0006F06D0FEF7CAFD6E
:102AF800401B6428F5D9032096E04D4AD36A23F099
:102B0800F003616B0B43D362D36A23F47063216BC8
:102B18000B43D362474B01221A60FEF7B3FD05460B
:102B2800434B1B6813F0006F1DD1FEF7ABFD401B34
:102B38006428F5D9032077E03D4AD36A23F480332B
:102B4800D3623C4B00221A60FEF79CFD0546384BC9
:102B58001B6813F0006F06D0FEF794FD401B642835
:102B6800F5D9032060E0236A002B5CD0304A526814
:102B780002F00C02082A59D0022B11D02E4B002249
:102B88001A60FEF77FFD0446294B1B6813F0007F8F
:102B980045D0FEF777FD001B0228F5D9032043E056
:102BA800254B00221A60FEF76DFD0546204B1B6879
:102BB80013F0007F06D0FEF765FD401B0228F5D90B
:102BC800032031E0636AB3F5803F1AD018494B6897
:102BD80023F47413626AA06A024313434B60164BD2
:102BE80001221A60FEF74EFD0446114B1B6813F0D4
:102BF800007F12D1FEF746FD001B0228F5D90320FD
:102C080012E00B4AD36A61680B43D362D36A23F09C
:102C18000F03E1680B43D362D8E7002004E00020EB
:102C280002E0012000E0002002B070BD0120FBE7B7
:102C38000010024068004242600042422DE9F04F15
:102C480089B0334C04AD94E80F0007C52B806D465E
:102C5800103494E80F0085E80F002E4B5B6803F0F2
:102C68000C02082A52D1C3F3834208A90A4412F875
:102C7800104C13F4803F43D02649CB6A03F00F036E
:102C880008AA134413F8202CCB6A13F4803F31D0E0
:102C9800CB6AC3F303130133C86AC0F303200230BD
:102CA800A0FB046770017901801B61EB07018B466B
:102CB8004FEA811949EA90694FEA8018B8EB000A8F
:102CC80069EB0B0B4FEACB0545EA5A754FEACA0C7C
:102CD8001CEB060045EB07014D0245EAD0554602BC
:102CE80030462946A3FB0223FEF7F6FA0D2C0AD13B
:102CF800400808E0084800FB04F0B0FBF2F0F5E7F4
:102D0800064800FB04F009B0BDE8F08F0248FAE776
:102D180050E300080010024000127A0000093D004C
:102D2800624B1B6803F007038B420CD25F4A13689F
:102D380023F007030B431360136803F007038B4268
:102D480001D00120704770B5036813F0020F17D047
:102D580013F0040F04D0564A536843F4E0635360F9
:102D6800036813F0080F04D0514A536843F46053C2
:102D780053604F4A536823F0F00384682343536039
:102D88000D460446036813F0010F52D04368012B27
:102D980023D0022B28D0464A126812F0020F00F006
:102DA800828043494A6822F0030213434B60FEF7CE
:102DB80069FC06466368012B1DD0022B2AD03C4BC8
:102DC8005B6813F00C0F34D0FEF75CFC801B41F2FB
:102DD80088339842F3D9032064E0354A126812F424
:102DE800003FDED101205DE0314A126812F0007F19
:102DF800D7D1012056E02E4B5B6803F00C03042B5F
:102E080017D0FEF73FFC801B41F288339842F2D975
:102E1800032047E0264B5B6803F00C03082B08D01F
:102E2800FEF730FC801B41F288339842F2D9032028
:102E380038E01E4B1B6803F00703AB420CD91B4A52
:102E4800136823F007032B431360136803F0070389
:102E5800AB4201D0012025E0236813F0040F06D00F
:102E6800134A536823F4E063E1680B435360236813
:102E780013F0080F07D00E4A536823F460532169F2
:102E880043EAC1035360FFF7D9FE094B5B68C3F3FC
:102E98000313084AD35CD840074B18600020FEF79C
:102EA800AFFB002070BD0120FCE700BF00200240FE
:102EB8000010024090E300080C000020014B186845
:102EC800704700BF0C00002008B5FFF7F7FF044B60
:102ED8005B68C3F30223034AD35CD84008BD00BF34
:102EE80000100240A0E3000808B5FFF7E7FF044B15
:102EF8005B68C3F3C223034AD35CD84008BD00BF54
:102F080000100240A0E3000870B582B004460368D0
:102F180013F0010F34D06B4BDB6913F0805F6DD178
:102F2800684BDA6942F08052DA61DB6903F080535A
:102F38000193019B0125644B1B6813F4807F5FD0CC
:102F4800604B1B6A13F4407311D0626802F440723C
:102F58009A420CD05B4A136A23F440705B490126FD
:102F68000E6000260E60106213F0010F5CD1554A06
:102F7800136A23F4407361680B431362002D64D114
:102F8800236813F0020F06D04E4A536823F44043D7
:102F9800A1680B435360236813F0040F06D0494A15
:102FA800D36A23F40033E1680B43D362236813F038
:102FB800080F06D0434AD36A23F4802321690B43C0
:102FC800D362404BDB6A13F4003F04D13D4BDB6A0C
:102FD80013F4802F66D03B4B1B6813F0805F58D1E9
:102FE800384B1B6813F0806F34D0364BDB6A03F024
:102FF800F003A26993422DD001205FE000259AE7F3
:10300800314A136843F480731360FEF73BFB0646AE
:103018002D4B1B6813F4807F92D1FEF733FB801B86
:103028006428F5D9032049E0FEF72CFB0646254B1A
:103038001B6A13F0020F9AD1FEF724FB801B41F2A2
:1030480088339842F3D9032038E0D36923F08053BA
:10305800D36195E71B4AD36A23F0F003A1690B43B8
:10306800D362D36A23F4704361690B43D362184B6C
:1030780001221A60FEF706FB0546124B1B6813F087
:10308800005F0FD1FEF7FEFA401B6428F5D9032034
:1030980014E00C4BDB6A03F470436269934201D07D
:1030A80001200BE0236813F0100F09D0054A53687C
:1030B80023F48003E1690B435360002002B070BD24
:1030C8000020FBE70010024000700040400442422C
:1030D8007000424270B588B006466A4C04AD94E868
:1030E8000F0007C52B806D46103494E80F0085E863
:1030F8000F00701E0F2800F2B680DFE800F087A8E6
:10310800B44DB4B4B46AB4B4B4B4B4B4B4085E4B93
:103118005A681B6813F0807F00F0A780C2F38343CE
:1031280008A90B4413F8101C12F4803F26D0564A05
:10313800D36A03F00F0308A8034413F8204CD36A9A
:1031480013F4803F14D0D36AC3F303130133D06A56
:10315800C0F3032002304D4AB2FBF3F300FB03F047
:10316800B0FBF4F001FB00F00D290AD1400808E09B
:103178004648B0FBF4F001FB00F0F5E7444800FBDB
:1031880001F0414B5B6813F4800F6AD14000414B5A
:10319800A3FB0030400864E03B4BDB6A13F4003FBC
:1031A80014D0394B1B6813F0805F60D0364AD36A5D
:1031B800C3F303130133D06AC0F303300230334A38
:1031C800B2FBF3F300FB03F040004AE0FFF736FDE3
:1031D80047E02D4BDB6A13F4802F14D02A4B1B6871
:1031E80013F0805F45D0284AD36AC3F30313013331
:1031F800D06AC0F303300230244AB2FBF3F300FB79
:1032080003F040002DE0FFF719FD2AE01E4B1B6A72
:1032180040F202321A40B2F5817F2CD003F4407399
:10322800B3F5007F04D0B3F5407F09D0002018E043
:10323800154A526A12F0020FF5D049F6404010E0E4
:10324800114B1B6813F4003F18D1002009E0FFF769
:103258004BFE0D4B5B68C3F3813301335B00B0FB5E
:10326800F3F008B070BD0020FBE70020F9E700206C
:10327800F7E70020F5E74FF40040F2E74FF224406B
:10328800EFE700BF70E300080010024000127A0068
:1032980000093D00ABAAAAAA30B402689469A5B295
:1032A800D369916988B2854205D0D06980B240EA75
:1032B800014030BC704798B240EA0440F9E703681F
:1032C800186A5B6A9BB243EA00407047002302E039
:1032D80001330A38C0B20928FAD81B01DBB21843F7
:1032E8007047030903EB83035A0000F00F001044F2
:1032F800C0B2704710F0030F16D10D4BA3FB00238B
:103308005B09642202FB13039BB27BB9084BA3FB46
:103318000023DB094FF4C87202FB130080B208B126
:103328000020704701207047002070470120704737
:103338001F85EB5110B400F5FA64022920D901EB7E
:103348004103C1EBC3011F4BA3FB011302EB530362
:10335800234403EB94031C4AA2FB0424A3EB541359
:1033680003EBD41302331948A0FB03201A1A00EB0D
:1033780052008008C0EBC000181AC0B210BC7047D9
:1033880001EB4103C1EBC3010E4BA3FB011302EB9D
:103398005303234400F2CF7003EB90030A4AA2FBC5
:1033A8000020A3EB501303EBD01304330748A0FB12
:1033B80003201A1A00EB52008008C0EBC000181A4C
:1033C800DBE700BF398EE3381F85EB51254992248E
:1033D8002DE9F8430746884690F80F90447B857B93
:1033E800002603E01E2D1FD80135013646453DD283
:1033F800012CF7D0032CF5D0052CF3D0072CF1D0F5
:10340800082CEFD00A2CEDD00C2CEBD0042C15D0C6
:10341800062C13D0092C11D00B2C0FD0022CE4D180
:103428001B2D12D80135E0E70C2C02D00134012500
:10343800DBE709F1010901252C46D6E71D2D01D846
:103448000135D2E701340125CFE71C2D04D01D2D0D
:10345800CBD101340125C8E71FFA89F0FFF74AFFED
:1034680008B10135C1E701340125BEE787F80F909F
:10347800E1B27973EAB2BA734846FFF75BFF387373
:10348800BDE8F88338B50446FEF7FCF8054623681E
:103498005A6812F0200F07D1FEF7F4F8401BB0F578
:1034A8007A7FF4D9032004E05A6842F010025A6087
:1034B800002038BD38B504460268536823F010036D
:1034C8005360FEF7DFF8054623685B6813F0200FAA
:1034D80007D1FEF7D7F8401BB0F57A7FF4D903205F
:1034E80000E0002038BD38B505460C46FFF7CAFF96
:1034F80010B10123184638BD2B68220C9A612B683D
:10350800A4B2DC612846FFF7D5FF03460028F1D0B6
:103518000123EFE738B505460C46FFF7B3FF10B1B6
:103528000123184638BD2B68220C1A622B68A4B2F6
:103538005C622846FFF7BEFF03460028F1D001234E
:10354800EFE770B5002857D00446002956D0037C11
:10355800012B55D00E460123037402234374BAB9D4
:103568000D784B78C3EB03139A004FF4616303FBA8
:1035780005258B781D4429462046FFF7B4FF0646EB
:10358800C8B104236374002323740126304670BD38
:103598000878FFF7A6FE4FF4616505FB00F5707823
:1035A800FFF79FFEC0EB001083001D44B078FFF7C3
:1035B80098FE0544DFE72268536823F0050353604B
:1035C8002046FFF77CFEB0F1FF3F01D0854204D8CA
:1035D8000123637400232374D8E700F5A83101F5AB
:1035E800C0712046FFF796FF0028F1D004236374CA
:1035F800002323740126C9E70126C7E70126C5E78A
:103608000226C3E7002875D02DE9F04705460029B2
:1036180072D003685B6813F0040F02D00120BDE884
:10362800F08716460C46FFF737FE0746364AA2FBD8
:103638000032D20A4FF4616000FB1270334BA3FBD7
:1036480000135B096370C3EB03139900411AA1705F
:10365800172A10D82270002E54D02078FFF736FE93
:1036680020706078FFF732FE6070A078FFF72EFEBA
:10367800A0700020D3E7264BA3FB07384FEA184871
:10368800244BA3FB02131B0903EB4303D900531A72
:1036980023702846FFF713FE8246B0F1FF3F03D0A0
:1036A80087421CD2A0EB070A194BA3FB07394FEA44
:1036B8001949194B03FB197949462846FFF713FFA7
:1036C800E0B9BAF1FF3F0DD00AEB09012846FFF730
:1036D80021FFA8B941462846FFF77AFEBBE74FF01D
:1036E800FF3AE1E751462846FFF714FF0028F1D0DA
:1036F800012094E701207047012090E701208EE720
:1037080001208CE700208AE7C5B3A29189888888C0
:1037180007452EC2ABAAAAAA8051010000285DD095
:1037280038B5044600295BD0037C012B5AD00D46DE
:103738000123037402234374D2B9CB78C3734B7843
:1037480043738B788373A27B617BE07BFFF7F2FD89
:10375800207328702046FFF79FFD234BA3FB00230F
:10376800B3F5484F11D2012363740020207438BD8B
:10377800C878FFF7B6FDE0736878FFF7B2FD6073AD
:10378800A878FFF7AEFDA073DDE7184DA5FB00355F
:103798002D0C174B03FB150529462046FFF7A3FE02
:1037A80028B104236374002323740120DFE7204633
:1037B800FFF785FDB0F1FF3FD5D08542D3D900F59D
:1037C800A83101F5C0712046FFF7A4FE0028CAD031
:1037D80004236374002323740120C8E70120704781
:1037E8000120C4E70220C2E7C5B3A29107452EC253
:1037F800805101002DE9F04182B00023ADF804307A
:103808008DF8063000B3054601B317460C461A4634
:1038180001A9FFF7F7FE0646E8B92B7B2370E87B82
:10382800E07095F80D8084F80180AD7BA57077B1C4
:10383800FFF74CFDE0704046FFF748FD60702846F2
:10384800FFF744FDA07002E0012600E001263046A3
:1038580002B0BDE8F0810126F9E7C0B138B50446E9
:103868000268536823F008035360FDF70BFF054611
:1038780023685B6813F0080F07D1FDF703FF401BAF
:10388800B0F57A7FF4D9032000E0002038BD01208C
:103898007047000000285AD010B50446437C53B145
:1038A800022363742046FFF7D8FF40B104236374F2
:1038B8000123184610BD037400F0BEFEF0E7204651
:1038C800FFF7E0FD002830D12268536823F0070392
:1038D8005360A36823B11F4A136B23F001031363DA
:1038E8001C4AD36A23F46073A1680B43D3626268ED
:1038F800B2F1FF3F1DD021688B6823F00F0343EA24
:1039080012438B602168CB681B0C1B0492B21343D3
:10391800CB602046FFF7CEFD0346A0B90022E27334
:1039280001226273A2736274C3E7042363740123E0
:10393800BFE70120FFF7CEFB08B1421EDBE70423F7
:1039480063740123B5E7042363740123B1E70123FA
:1039580018467047006C0040890001F1804101F56C
:10396800D84192B20A607047890001F1804101F59F
:10397800D841086880B270470268D36843F00103F1
:10398800D3600268136843F0010313600020704796
:103998000268D36823F00103D3600368196A41F20F
:1039A8001112114208D1196A40F24442114203D15E
:1039B8001A6822F001021A600020704770477047A9
:1039C80070477047704710B5044603681A6912F0CB
:1039D800020F11D0DA6812F0020F0DD06FF0020258
:1039E8001A610123037703689B6913F0030F70D0F2
:1039F800FFF7E6FF0023237723681A6912F0040F04
:103A080012D0DA6812F0040F0ED06FF004021A61B7
:103A18000223237723689B6913F4407F5FD02046F5
:103A2800FFF7CEFF0023237723681A6912F0080FE7
:103A380012D0DA6812F0080F0ED06FF008021A617F
:103A4800042323772368DB6913F0030F4ED0204645
:103A5800FFF7B6FF0023237723681A6912F0100FC7
:103A680012D0DA6812F0100F0ED06FF010021A613F
:103A7800082323772368DB6913F4407F3DD0204671
:103A8800FFF79EFF0023237723681A6912F0010FBE
:103A980003D0DA6812F0010F36D123681A6912F0E0
:103AA800800F03D0DA6812F0800F34D123681A69C6
:103AB80012F0400F03D0DA6812F0400F32D12368B9
:103AC8001A6912F0200F03D0DA6812F0200F30D1F3
:103AD80010BDFFF774FF2046FFF773FF8AE7204603
:103AE800FFF76DFF2046FFF76CFF9BE72046FFF7C7
:103AF80066FF2046FFF765FFACE72046FFF75FFF4C
:103B08002046FFF75EFFBDE76FF001021A6120460D
:103B1800FFF754FFC1E76FF080021A61204600F0FA
:103B280094F8C3E76FF040021A612046FFF74AFF96
:103B3800C5E76FF020021A61204600F085F8C7E754
:103B480003681F4A90420ED0B0F1804F0BD0A2F507
:103B58009432904207D002F58062904203D002F579
:103B68008062904203D123F070034A681343144AD9
:103B780090420ED0B0F1804F0BD0A2F59432904213
:103B880007D002F58062904203D002F5806290422D
:103B980003D123F44073CA68134323F080034A69AE
:103BA800134303608B68C3620B688362044B9842BB
:103BB80002D00123436170470B690363F9E700BF33
:103BC800002C0140A8B110B5044690F83D305BB117
:103BD800022384F83D30211D2068FFF7B1FF01233F
:103BE80084F83D30002010BD80F83C3000F0DEFE47
:103BF800EEE70120704790F83C30012B22D030B41A
:103C0800012280F83C20022380F83D300468636874
:103C180023F070036360046863680D682B43636076
:103C28000468A36823F08003A3600468A368496854
:103C38000B43A36080F83D20002380F83C301846F1
:103C480030BC704702207047704770470268D368DD
:103C580023F49073D3600268536923F0010353611E
:103C6800202380F83A30704790F83930DBB2212BA6
:103C78002AD18368B3F5805F16D0036A5A1C0262A2
:103C88001A7803685A60C38C013B9BB2C384EBB9B2
:103C98000268D36823F08003D3600268D36843F0D6
:103CA8004003D36000207047036A1B880268C3F38F
:103CB8000803536003691BB9036A02330362E2E72E
:103CC800036A01330362DEE7022070470020704771
:103CD8002DE9F84305460268136923F44053C16887
:103CE8000B431361836802691343426913430168F4
:103CF800CA6822F4B05222F00C021343CB60026867
:103D0800536923F4407381690B4353610268594B2B
:103D18009A4257D0FFF7D8F800EB800000EB8000FC
:103D28006C68A400B0FBF4F4534FA7FB0434640997
:103D38002601FFF7C9F800EB800000EB80006C68F3
:103D4800A400B0FBF4F9FFF7BFF800EB800000EB2C
:103D580080006C68A400B0FBF4F4A7FB0434640989
:103D68004FF0640808FB149424013234A7FB043490
:103D7800640904F0F0043444FFF7A6F800EB80006F
:103D880000EB80006E68B600B0FBF6F6FFF79CF813
:103D980000EB800000EB80006B689B00B0FBF3F049
:103DA800A7FB0030400908FB10684FEA081808F123
:103DB8003208A7FB0837C7F343172B6827449F60CF
:103DC800BDE8F883FFF790F800EB800000EB800077
:103DD8006C68A400B0FBF4F4274FA7FB0434640913
:103DE8002601FFF781F800EB800000EB80006C688B
:103DF800A400B0FBF4F9FFF777F800EB800000EBC4
:103E080080006C68A400B0FBF4F4A7FB04346409D8
:103E18004FF0640808FB149424013234A7FB0434DF
:103E2800640904F0F0043444FFF75EF800EB800006
:103E380000EB80006E68B600B0FBF6F6FFF754F8AA
:103E480000EB800000EB80006B689B00B0FBF3F098
:103E5800A7FB0030400908FB10684FEA081808F172
:103E68003208A7FB0837C7F343172B6827449F601E
:103E7800A6E700BF003801401F85EB5158B310B5C5
:103E8800044690F839300BB3242384F8393022687B
:103E9800D36823F40053D3602046FFF719FF226844
:103EA800136923F4904313612268536923F02A03AA
:103EB80053612268D36843F40053D3600020E06361
:103EC800202384F8393084F83A3010BD80F838302F
:103ED80000F0D8FDD8E70120704790F83930DBB200
:103EE800202B16D1B9B1C2B190F83830012B16D0B9
:103EF80001628284C2840023C363212280F83920AE
:103F080080F838300168CA6842F08002CA601846F2
:103F18007047022070470120704701207047022037
:103F2800704790F83A30DBB2202B25D131B33AB341
:103F380090F83830012B25D081628285C285002314
:103F4800C363222280F83A2080F838300168CA68B2
:103F580042F48072CA6001684A6942F001024A610B
:103F68000168CA6842F02002CA600168CA6842F063
:103F78001002CA6018467047022070470120704737
:103F8800012070470220704708B50168CB6823F00C
:103F98004003CB60202380F8393005F08DFE0020E7
:103FA80008BD08B590F83A30DBB2222B45D18368BA
:103FB800B3F5805F0ED0036903BB03685A68836A50
:103FC800591C81621A70C38D013B9BB2C385F3B142
:103FD800002033E0826A036943B903685B68C3F36E
:103FE80008031380836A02338362ECE703685B6823
:103FF800DBB21380836A01338362E4E703685B689A
:10400800826A511C816203F07F031370DBE7026848
:10401800D36823F02003D3600268D36823F4807345
:10402800D3600268536923F001035361202380F8A9
:104038003A3005F045FE002000E0022008BD704738
:1040480030B583B0044602681368D068516913F02C
:104058000F0505D113F0200F02D010F0200F53D117
:10406800002D67D011F0010102D110F4907F61D0CA
:1040780013F0010F06D010F4807F03D0E26B42F0FA
:104088000102E26313F0040F04D019B1E26B42F0AD
:104098000202E26313F0020F04D019B1E26B42F09E
:1040A8000402E26313F0080F04D019B1E26B42F086
:1040B8000802E263E26B002A4ED013F0200F02D010
:1040C80010F0200F24D123685B6903F04003E26BF2
:1040D80012F0080F00D13BB32046FFF7B7FD236865
:1040E8005A6912F0400F1BD05A6922F040025A61F7
:1040F800636B8BB1234A5A63606BFDF7A3FE58B319
:10410800606B436B984727E02046FFF74AFF23E0A0
:104118002046FFF746FFD6E72046FFF790FF1BE053
:104128002046FFF78CFF17E02046FFF788FF0023A3
:10413800E36311E013F0800F02D010F0800F0DD16F
:1041480013F0400F02D010F0400F0BD113F0100FF6
:1041580002D010F0100F09D103B030BD2046FFF790
:1041680083FDF9E72046FFF70FFFF5E700230193EA
:104178001368019353680193019B204605F08CFD59
:10418800EAE700BF9141000808B5406A0023C385EB
:10419800C384FFF754FF08BD00B585B02B482C4BEE
:1041A80003604FF4807383600023C36043614FF45E
:1041B8006022C26143600193029303930D2303615C
:1041C800FDF73EFC002831D100230193012302931F
:1041D800042303930DEB03011C48FDF797FA40BB3A
:1041E8000123019302230293042303930DEB03019C
:1041F8001648FDF78BFAF8B90223019303230293BB
:10420800042303930DEB03011048FDF77FFAB0B9BF
:10421800052301930423029303930DEB03010B4839
:10422800FDF774FA70B905B05DF804FB00F074F995
:10423800CAE700F071F9D3E700F06EF9DCE700F0A7
:104248006BF9E5E700F068F9EDE700BF101D002005
:104258000024014030B589B00023049305930693E8
:10426800079302682D4B9A4201D009B030BD04462D
:1042780003F56C439A6942F400729A619A6902F4F0
:1042880000720092009A9A6942F010029A619A6943
:1042980002F010020192019A9A6942F004029A61AE
:1042A8009A6902F004020292029A9A6942F008029C
:1042B8009A619B6903F008030393039B3F230493CC
:1042C8000325059504A91648FEF74CF97F230493A6
:1042D800059504A91348FEF745F90495059504A921
:1042E8001148FEF73FF91148114B03600023436062
:1042F80083608022C2604FF4807202614FF4806252
:1043080042618361C361FDF7FFFC18B9074B236263
:104318005C62AAE700F000F9F8E700BF002401405A
:104328000010014000080140000C0140401D002021
:104338000800024008B50548054B0360FDF79EFCE0
:1043480000B908BD00F0E8F8FBE700BF841D0020B5
:10435800003002400268094B9A4200D0704782B090
:10436800A3F500535A6942F040025A615B6903F0B1
:1043780040030193019B02B0704700BF0030024028
:1043880000B583B00A4B5A6942F001025A615B6971
:1043980003F001030193019B002211460B20FDF756
:1043A80017FC0B20FDF748FC03B05DF804FB00BFC9
:1043B800001002402DE9F04788B0002404940594C9
:1043C80006940794504B9A6942F010029A619A69D0
:1043D80002F010020092009A9A6942F020029A6153
:1043E8009A6902F020020192019A9A6942F0040245
:1043F8009A619A6902F004020292029A9A6942F05A
:1044080008029A619B6903F008030393039BDFF892
:1044180000A122464FF400515046FEF78DF93B4F5C
:10442800224646F62C713846FEF786F9DFF8E48016
:1044380022464FF404414046FEF77EF94FF40059F6
:10444800CDF810900126059606940225079504A933
:104458005046FEF787F8802304930594069404A930
:104468004046FEF77FF84FF4806304930596069460
:10447800079504A93846FEF775F84FF400630493CE
:1044880005960694079504A93846FEF76BF8CDF80B
:10449800109005960694079504A93846FEF762F829
:1044A8004FF48043049305960694079504A938466B
:1044B800FEF758F82023049305960694079504A957
:1044C8003846FEF74FF84FF4807304930596069428
:1044D800079504A93846FEF745F84FF4007304938E
:1044E80005960694079504A93846FEF73BF84FF45D
:1044F8000443049305960694079504A94046FEF7DD
:1045080031F808B0BDE8F08700100240000C014007
:104518000010014000080140024B1B78002BFBD122
:10452800704700BF0800002000B59DB0342200216C
:104538000FA807F0BFFA002109910A910B910C917D
:104548000D91202201A807F0B5FA09230E934FF424
:104558008033109301221392159202221692179318
:104568004FF4E01318930EA8FEF708F9F8B90F23D3
:10457800099302210A9100230B934FF480620C9255
:104588000D9309A8FEF7CCFBA0B9032301934FF4C0
:10459800007302934FF40043039301A8FEF7B4FCA1
:1045A80058B9074B01221A601DB05DF804FBFFF7EC
:1045B800B3FFDCE7FFF7B0FFE7E7FFF7ADFFF0E792
:1045C8007000424208B5FDF73FF8FFF7ADFFFFF76F
:1045D800F1FEFFF7D5FEFFF7DFFDFFF7ABFE00F0BA
:1045E80015F800F01BFA00F033FA00F08FF900F02C
:1045F800B3F900F04FFB08B1FFF78EFF00F0B2FBF4
:104608000028FBD0FFF788FFF8E7000008B5084846
:10461800084B03604FF0FF3343604FF480738360AF
:10462800FFF738F900B908BDFFF776FFFBE700BFD1
:104638008C1D00200028004002680C4B9A4200D0D4
:10464800704700B583B0FEF77DF8094BDA6942F090
:104658000062DA61DB6903F000630193019B054B9B
:1046680001221A6003B05DF804FB00BF0028004077
:10467800001002403C04424282B00E4B9A6942F05C
:1046880001029A619A6902F001020092009ADA69BD
:1046980042F08052DA61DB6903F080530193019B99
:1046A800054A536823F0E06343F00073536002B097
:1046B800704700BF00100240000001407047FEE74D
:1046C800FEE7FEE7FEE770477047704708B5FCF75E
:1046D800CDFF124B1A6801321A60114A12681B6822
:1046E8009A4204D00D4B1B79012B03D008BD05F06D
:1046F800C1FBF7E7094B1A680A4BA3FB02135B09D6
:10470800642101FB13232BB1192BEFD10648FFF7C6
:1047180033F9EBE70548FFF72FF9E7E754040020E2
:10472800B01C00201F85EB51A01D0020E01D0020BB
:1047380008B50248FDF73AFC08BD00BF401D00203F
:1047480008B50248FFF77CFC08BD00BF601E0020CA
:1047580008B50248FFF774FC08BD00BF201E002002
:1047680008B5064902234B71042208310448FDF7B5
:10477800A9F80448FFF727F908BD00BF5404002032
:10478800101D0020A01D002008B5064901234B710B
:10479800042208310448FDF795F80448FFF713F997
:1047A80008BD00BF54040020101D0020E01D00209B
:1047B80070B505462F4B5B79012B02D0022B2AD00E
:1047C80070BD2C4C2089268AFCF7BCFA2A4B43F88A
:1047D80026006089FCF7B6FA284B43F82600A08922
:1047E800FCF7B0FA264B43F82600E089FCF7AAFA52
:1047F800244B43F826002846FDF7AAF9238A0133FB
:104808009BB22382152BDBD11F48FFF7C1F800228A
:1048180022826271D4E7174C668A23899BB21B4AAD
:1048280022F8163063899BB2194A22F81630A389F8
:104838009BB2184A22F81630E089FCF783FA164B27
:1048480043F826002846FDF783F9638A01339BB2B3
:104858006382F02BB4D11148FFF79AF800226282E4
:104868006369013363616271FCF70CFFA369C01AC5
:10487800E061A5E7540400202807002080070020F5
:10488800D807002014060020E01D00204C0A002054
:10489800340C0020580800203C100020A01D0020E7
:1048A800034B00221A825A821A605A61704700BF6D
:1048B80054040020124B1A6842F001021A60596829
:1048C800104A0A405A601A6822F0847222F4803230
:1048D8001A601A6822F480221A605A6822F4FE02CA
:1048E8005A601A6822F0A0521A604FF47F029A6048
:1048F8000022DA62044B4FF000629A60704700BFF2
:10490800001002400000FFF000ED00E000B583B0A9
:104918000023009301930E480E4A0260472242602A
:1049280083606322C2608361FFF74CF950B90023AA
:104938000093019369460648FFF75DF928B903B06B
:104948005DF804FBFFF7E8FDF1E7FFF7E5FDF6E7A3
:10495800A01D00200010004000B583B00023009384
:1049680001930F480F4A02602722426083600E4A73
:104978001288013AC2608361FFF724F950B9002315
:104988000093019369460648FFF735F928B903B043
:104998005DF804FBFFF7C0FDF1E7FFF7BDFDF6E7A3
:1049A800E01D0020001400402000002000B583B066
:1049B8000368174A934205D0164A934215D003B0AC
:1049C8005DF804FB144BDA6942F01002DA61DB6926
:1049D80003F010030093009B002211463620FDF7D8
:1049E800F7F83620FDF728F9E9E70B4BDA6942F0CA
:1049F8002002DA61DB6903F020030193019B0022A6
:104A080011463720FDF7E4F83720FDF715F9D6E70A
:104A180000100040001400400010024008B50A4889
:104A28000A4B03604FF41643436000238360C3605E
:104A380003610C2242618361C361FFF71FFA00B969
:104A480008BDFFF769FDFBE7601E0020004C004031
:104A580008B50A480A4B03604FF416534360002315
:104A68008360C36003610C2242618361C361FFF705
:104A780005FA00B908BDFFF74FFDFBE7201E00202F
:104A88000050004030B58BB000230693079308937D
:104A9800099303683C4A934204D03C4A934239D074
:104AA8000BB030BD3A4BDA6942F40022DA61DA69B8
:104AB80002F400220192019A9A6942F010029A6166
:104AC8009B6903F010030293029B4FF480630693E3
:104AD80002230793032309932E4D06A92846FDF7C1
:104AE80041FD4FF40063069300240794089406A937
:104AF8002846FDF737FD224621463420FDF768F8A1
:104B08003420FDF799F8244B1A68D36843F0100352
:104B1800D360C5E71E4BDA6942F48012DA61DA69BC
:104B280002F480120392039A9A6942F010029A6181
:104B38009A6902F010020492049A9A6942F02002DB
:104B48009A619B6903F020030593059B4FF48053FA
:104B58000693022307930323099306A90D48FDF73B
:104B680001FD0423069300240794089406A90B4822
:104B7800FDF7F8FC224621463520FDF729F83520B7
:104B8800FDF75AF88CE700BF004C00400050004089
:104B98000010024000100140601E00200014014077
:104BA8002DE9F041A4B005460C4617461E46802262
:104BB800002104A806F07EFF324B1A685369116978
:104BC8005068039090680290D26801920131009178
:104BD80003F26C732C4A112104A807F0CDFC284677
:104BE800FCF7FCFC30281BD80246294608A806F02A
:104BF80056FF2046FCF7F2FC302828D93038044408
:104C080025460DF1500E3034F44628686968AA68C4
:104C1800EB68ACE80F001035E646A542F4D11BE07E
:104C280030380544AC460DF120083035C646DCF86E
:104C38000000DCF80410DCF80820DCF80C30AEE8E2
:104C48000F000CF1100CF046AC45EFD1D1E702464D
:104C5800214614A806F023FF0C4C3B4622460521AA
:104C680020A807F089FC33462246052121A807F031
:104C780083FC802204A9064804F055F8002024B0DB
:104C8800BDE8F0819016002034E500084CE50008E6
:104C98000020030810B582B001238DF8073021E009
:104CA80002F01CFD01F0DCFF0346002837D101F0BB
:104CB800F3FF034600283ED14FF2F00002F004FD56
:104CC80002F006F805F0A4F801F01AFF00F0F8F970
:104CD800FCF7D8FC1F4B18601F4B01221A700023E9
:104CE8008DF807309DF807300BB302F0E5FC4FF262
:104CF800F0039842D4D002F089FD01F0BFFF0346CB
:104D080010BB01F0D7FF044601F0D4FF0028D3D030
:104D18002346752211491248FFF742FFCCE75B2270
:104D28000E490F48FFF73CFF05238DF807309DF823
:104D3800070002B010BD622208490948FFF730FF9A
:104D480005238DF80730F2E76E2204490448FFF77F
:104D580027FFD6E7D804002058040020A8E300085D
:104D680050E5000810B582B001238DF80730384BA4
:104D78005A6801325A60374A12689B689A421FD1B2
:104D8800354B1B78012B38D0002B39D001F0C2FFEE
:104D98002F4B1B7FDBB2012B35D02D4B5B7FDBB25A
:104DA800012B3FD02A4B5B68B3F5966F4CD0FCF7CC
:104DB80069FC274AD368C01A5061002002B010BDB0
:104DC800FCF760FC224CE06001F096FEFCF75AFC10
:104DD800E368C01A206100F07DF9FCF753FCE36832
:104DE800C01A6061A26963699A4201D26269A261CC
:104DF800184B1A68164B9A60C2E702F017FCC5E711
:104E080002F01EFCC2E701F039FF034618B9104B47
:104E180000221A77C1E74FF4857210491048FFF74E
:104E2800BFFEF4E701F046FF044601F043FF18B95E
:104E3800074B00225A77B5E723464FF48A72074991
:104E48000748FFF7ADFEF3E7014B00225A60AEE7D3
:104E5800D80400206804002099160020B0E3000858
:104E680050E5000808B5FCF7C7F980B208BD000096
:104E780008B50749FBF7BEFFFCF7BEF9054BA3FBD6
:104E880000235B0B42F2107202FB130080B208BDD4
:104E980000401C465917B7D170B505460C46002688
:104EA8000E8001234B800068FFF7DCFFA080286894
:104EB800FFF7DEFFE0806868FFF7D4FF20816868AD
:104EC800FFF7D6FF6081A868FFF7CCFFA081A8682C
:104ED800FFF7CEFFE081E868FFF7C4FF2082E868AB
:104EE800FFF7C6FF60822869FFF7BCFFA082286928
:104EF800FFF7BEFFE0826869FFF7B4FF20836869A7
:104F0800FFF7B6FF6083A869FFF7ACFFA083A86925
:104F1800FFF7AEFFE0832B7F23846B7F6384286ACF
:104F2800FFF7A0FFA084286AFFF7A2FFA085686AA0
:104F3800FFF798FFE084A86AFFF794FF2085A86A26
:104F4800FFF796FF6085686BFFF78CFFE085A86B1D
:104F5800FFF788FF2086A86BFFF78AFF6086E86B5B
:104F6800FFF780FFA086E86BFFF782FFE086286CDA
:104F7800FFF778FF2087286CFFF77AFF6087686C57
:104F8800FFF770FFA087686CFFF772FFE087A86CD7
:104F9800FFF768FFA4F84000A86CFFF769FFA4F8C2
:104FA8004200E86CFFF75EFFA4F84400E86CFFF7E6
:104FB8005FFFA4F84600286DFFF754FFA4F84800E7
:104FC800286DFFF755FFA4F84A00686DFFF74AFF00
:104FD800A4F84C00686DFFF74BFFA4F84E00A86DCD
:104FE800FFF740FFA4F85000A86DFFF741FFA4F8B1
:104FF8005200E86DFFF736FFA4F85400E86DFFF79C
:1050080037FFA4F85600286EFFF72CFFA4F85800C5
:10501800286EFFF72DFFA4F85A00686EFFF722FFED
:10502800A4F85C00686EFFF723FFA4F85E00A86E82
:10503800FFF718FFA4F86000A86EFFF719FFA4F89F
:105048006200E86EFFF70EFFA4F86400E86EFFF751
:105058000FFFA4F86600286FFFF704FFA4F86800A4
:10506800286FFFF705FFA4F86A00686FFFF7FAFEDC
:10507800A4F86C00686FFFF7FBFEA4F86E0095F8C3
:105088007830A4F870303923A4F87230E86FFFF74D
:10509800E9FEA4F87400E86FFFF7EAFEA4F87600CA
:1050A8003C23A4F878303D23A4F87A30B5F8803052
:1050B800A4F87C30B5F88230A4F87E30304670BD54
:1050C80008B50249024801F063FB08BDA8010020A9
:1050D8007400002010B5064C204601F041FC402227
:1050E80004F184012046FFF7D7FE002010BD00BF61
:1050F80004050020000000002DE9F04180460D461F
:1051080017461E46824B59681868FCF711F80028A4
:1051180040F0828029464046FBF764FD3946FBF79C
:1051280061FD7C49FBF71AFF044601464046FBF740
:1051380057FD20F0004821462846FBF751FD20F096
:10514800004541462846FCF711F800B94546214676
:105158003846FBF745FD20F0004729463846FCF75E
:1051680005F800B92F4621463846FBF7F7FE6A498D
:10517800FBF740FE694B18601B687363664B7362EC
:10518800674B1B78002B40F0AC80644B186865496E
:10519800FBF7E4FE04466449FBF7D4FF002800F05F
:1051A800848000212046FBF7D7FF30B14FF07C51B7
:1051B8002046FBF7C7FF002868D14FF07C512046F6
:1051C800FBF7D4FF28B14FF07E512046FBF7BAFF1A
:1051D80050BB4FF07E512046FBF7C8FF002838D05F
:1051E8004FF080412046FBF7ADFF90B32046FBF718
:1051F8007BF900224D4BFBF717F83BA3D3E90023BB
:10520800FBF7CAF902460B4639A1D1E90001FBF7C1
:105218000BF8FBF791FC3BE03D4B3F4A9A603F4B54
:1052280000221A6003203CE02046FBF75DF90022CB
:105238003F4BFAF7F9FF30A3D3E90023FBF7ACF9AA
:1052480002460B4600203949FAF7EEFFFBF774FCDB
:105258001EE04FF080412046FBF788FF18B3204638
:10526800FBF742F900224FF08043FAF7DDFF24A351
:10527800D3E90023FBF790F902460B4622A1D1E9B6
:105288000001FAF7D1FFFBF757FC01E04FF07E5021
:105298002149FBF7AFFD1E4B98601D4B9B6873625D
:1052A8000020BDE8F0810020F2E72046FBF71CF95A
:1052B80000224FF08043FAF7B7FF11A3D3E9002388
:1052C800FBF76AF902460B460FA1D1E90001FAF78C
:1052D800ABFFFBF731FC1049FBF78CFD0C4B9860DA
:1052E800DBE70020DDE700BFB81E85EB51B89E3F25
:1052F800AE47E17A14AEEF3F7B14AE47E17A943FB4
:10530800EC51B81E85EBB13FB81E85EB51B8EE3FA6
:1053180010000020000040400000C842080600209D
:10532800A01E00200000E040000020410000F03FE7
:105338000000E03F2DE9F04F85B00024029403946B
:105348000194A246A146A046A646A446274629E0BF
:10535800032F34D908F101085FFA88F8B8F1030F70
:105368002DD9019D5DBB019429E0BCF1030F30D913
:1053780009F101095FFA89F9B9F1030F29D9039DE8
:105388003DBB039425E0BEF1030F09D90AF1010AD8
:105398005FFA8AFABAF1030F02D9029D05B902949D
:1053A8000134E4B2A5B29D421ED2660030F8145012
:1053B800ADB240F6270B5D45CAD80137FFB28D5B09
:1053C800ADB240F6270B5D45CFD80CF1010C5FFA62
:1053D8008CFC955BADB240F62706B542D3D80EF1EA
:1053E800010E5FFA8EFEDBE701998AB29A4233D04A
:1053F800039882B29A4233D0029CA2B29A4231D028
:10540800814201D2A0422FD3019B02998B4202D93B
:10541800039A93422AD3039B1946029B994202D2CC
:10542800019A9A4224D8019B1946039B994202D9B2
:10543800029A93421ED8019B02998B4202D2039A88
:10544800934219D8039B1946029B994216D9019A8F
:105458009A4215D3032000E0042005B0BDE8F08F80
:105468000520FAE70620F8E70120F6E70120F4E72F
:105478000120F2E70220F0E70220EEE70320ECE744
:105488000220EAE710B50B4CE0680B49FBF7B2FCC9
:1054980001460A48FBF762FDFBF7AEFE80B22082A8
:1054A800238A9BB2B3F5FA6F01D0FFF755FA0020B3
:1054B80010BD00BF100000200000904100BADB4979
:1054C80070B584B0002800F08B800546454C211D3E
:1054D800002363604B6004F10C0004F0E5F9636E8F
:1054E800142B6ED9A0680021FBF722FE38BB3D4B78
:1054F8009868996EFBF774FB3B4B586158693B49B8
:10550800FBF734FE28B1384C60693949FBF768FB72
:105518006061354B58693749FBF70AFE28B1324CB0
:1055280060693349FBF75EFB60612F4B586920F0D7
:1055380000403149FBF7FCFD38B9052542E0A06879
:105548002B49FBF74FFBA060D1E704AB002243F8DF
:10555800042D254A5069234E0093284B284AF16EA2
:1055680003F0FAFB039CF46624F000402549FBF79E
:10557800DFFD98B124492046FBF7F0FC1C49FBF7F6
:1055880031FB1B49FBF7EAFC2049FBF733FC164BC0
:10559800D860154BDB682B60002513E019492046BD
:1055A800FBF7DAFD18B1104B194ADA60F1E719492F
:1055B8002046FBF7C7FD0028EBD00B4B164ADA60F4
:1055C800E7E70025074C636E01336366A368A366AB
:1055D800FCF758F8236FC01A6067284604B070BDFE
:1055E8000425FAE7080600201000002000003443D4
:1055F8000000B443000034C30000E841000020412B
:105608000000A041000010420000A04000004842F5
:1056180000003442000010C200005C42000000009C
:1056280030B585B00546124B5868124BD969FBF75F
:10563800E1FBFAF759FF0CA3D3E90023FAF7ACFF13
:10564800FBF77AFA04AB002243F8042D0A4CA1694F
:1056580000930A4B0A4A03F07FFB039BA361A369EB
:105668006B60002005B030BD9A9999999999B93F16
:1056780008060020E41E0020100000200000204141
:105688000000A0412DE9F04385B081464FF40008A1
:1056980004AD45F8048D6D4CD4F884006C4F6D4E04
:1056A80000953B463246D4F8881003F055FB039B1F
:1056B800C4F88830CDF80C80D4F8800000953B46BB
:1056C8003246D4F88C1003F047FB039BC4F88C30A7
:1056D800614B5B8C032B03D0002005B0BDE8F08341
:1056E800D4F89C003E465B4D03AF009733462A46EC
:1056F800D4F8A01003F030FB039BC4F8A030CDF819
:105708000C80D4F8B000009733462A46D4F8B41079
:1057180003F022FB039BC4F8B430D4F89800009738
:1057280033462A46D4F8B81003F016FB039BC4F896
:10573800B830CDF80C80D4F8AC00009733462A4630
:10574800D4F8BC1003F008FB039DC4F8BC50424BCE
:105758005B8C032B24D0012BBED10024C9F8584000
:10576800C9F85C40C9F86440C9F868403A4B5D69BB
:10577800364ED6F888102846FBF73CFB3749FBF72E
:1057880039FBC9F86000D6F88C102846FBF732FBC5
:105798003249FBF72FFBC9F86C00C9F870409BE74A
:1057A8002D4ED6F80480D4F8A0104046FBF722FB13
:1057B8002A49FBF71FFBC9F85800F768D4F8B4105A
:1057C8003846FBF717FB2549FBF714FBC9F85C00C3
:1057D800D4F8B8104046FBF70DFB2049FBF70AFB4D
:1057E800C9F8640039462846FBF704FB1B49FBF758
:1057F80001FBC9F868007569D4F888102846FBF7DA
:10580800F9FA1649FBF7F6FAC9F86000D4F88C40A3
:1058180021462846FBF7EEFA1049FBF7EBFAC9F8E0
:105828006C000F4B1B786BB921462046FBF7DAF961
:1058380001462046FBF7D6F90849FBF7DBFAC9F819
:10584800700049E70023C9F8703045E708060020D2
:10585800000020410000A041E41E00209A99593F11
:10586800A01E002070B584B00546002303932E4A7D
:10587800D2F8C0300133C2F8C0302C4C60682C49D3
:10588800FBF76CFBE4692146FBF752FC00283AD091
:1058980021462046FBF7AEFA0646244C2449A06868
:1058A800FBF75CFB01463046FBF758FB06462049F0
:1058B800206AFBF753FB01463046FBF74FFB1A4BB8
:1058C800D3F8C410626A03AB00931A4B03F044FA8E
:1058D800154B039AC3F8C420D3F8C4004FF07F5186
:1058E800FBF744FC28B1104AD2F8C030013BC2F89B
:1058F800C0300D4BD3F8C4000D49FBF77BFAE867BD
:10590800002004B070BD084BD3F8C440074B586A58
:105918000146FBF767F903AB0093064B02462146A5
:10592800002003F019FAD3E7080600201000002031
:105938000000C842000020412DE9F04184B08046B3
:1059480058220021734806F0B5F8002520E0724C73
:1059580004EB8504D4F82001704EB16AFBF740F9D6
:105968000746D4F87801F16AFBF73AF90146384658
:10597800FBF738F90746D4F8D001316BFBF730F95B
:1059880001463846FBF72EF9C4F8C8000135EDB2D8
:10599800112DDCD9604C04F50A7104F1C80004F03B
:1059A80007F804AB002243F8042DD4F8280200932A
:1059B8005B4B5C4AD4F8381203F0CEF9039DC4F867
:1059C8003852564B586B5849FBF7C8FA01462846D7
:1059D800FBF7CCFB002862D0A068D4F82C12FBF7A8
:1059E800FFF804465149FBF7A3FB20B15049204674
:1059F800FBF7F8F804464F492046FBF7B7FB20B100
:105A08004B492046FBF7ECF8044604AB002243F868
:105A1800082D414D0093424B424AD5F83C1220468E
:105A280003F09AF90298C5F83C02D5F84012FBF742
:105A3800D7F804463D49FBF77BFB20B13C4920469B
:105A4800FBF7D0F804463B492046FBF78FFB20B113
:105A580037492046FBF7C4F8044637492046FBF788
:105A6800C1F805463149FBF763FB20B130492846A8
:105A7800FBF7B8F805462F492846FBF777FB20B116
:105A88002B492846FBF7ACF8054624F000402B4983
:105A9800FBF76CFBE0B1204B032283F84422284C2F
:105AA800E1686068FBF79EF86169FBF79BF8254998
:105AB800FBF754FA184CD4F83812FBF79BF9C8F8DE
:105AC800740094F8443288F8783004B0BDE8F08166
